:020000040800F2
:1000000000000220B9020008C1020008C502000871
:10001000390300083D0300088503000800000000C4
:10002000000000000000000000000000CD030008F8
:10003000D103000800000000D5030008ED0300080C
:10004000E9030008E9030008E9030008E9030008E0
:10005000E9030008E9030008E9030008E9030008D0
:10006000E9030008E9030008E9030008E9030008C0
:10007000E9030008E9030008E9030008E9030008B0
:10008000E9030008E9030008E9030008E9030008A0
:10009000E9030008E9030008E9030008E903000890
:1000A000E9030008E9030008E9030008E903000880
:1000B000E90300081D180008E9030008E903000827
:1000C000E9030008E9030008E9030008E903000860
:1000D000E9030008E9030008E9030008E903000850
:1000E000E9030008E9030008E9030008E903000840
:1000F000E9030008E9030008E9030008E903000830
:10010000E9030008E9030008E9030008E90300081F
:10011000E9030008E9030008E9030008E90300080F
:10012000E9030008E9030008E9030008E9030008FF
:10013000E90300080000000000000000E9030008D7
:10014000E9030008E9030008E9030008E9030008DF
:10015000E9030008E9030008E9030008E9030008CF
:10016000E9030008E9030008E9030008E9030008BF
:10017000E9030008E9030008000000000000000097
:10018000E9030008E903000800B583B001F02AF98B
:10019000384B394A1360394A136039490CE00A6810
:1001A0004B6801F10C04886803E01168196004339E
:1001B00004329842F9D82146324B9942EFD32E4B64
:1001C0001A68314B9A4204D12C4B1A682F4B9A4231
:1001D00000D0FEE7274B2E4A13602E4A13602E4BA9
:1001E0000AE0194651F8082B5B6802E00020106015
:1001F00004329A42FAD30B46284A9342F1D3244B55
:100200001B6813B9234B1B6803B1FEE701F048FAE2
:10021000694601A801F076F8214C224B1C1BA41062
:10022000002504E01E4B53F8253098470135AC42B9
:10023000F8DC1D4C1D4B1C1BA410002504E01A4BC0
:1002400053F8253098470135AC42F8DC0099019805
:1002500001F0B0FA0546164C164B1C1BA41004E026
:10026000013C134B53F824309847002CF8DC284607
:1002700001F01AF8BABADECA00000020E00100203E
:10028000F40300080C0400087856341232547698AF
:10029000E4010020C40200200C0400081C04000833
:1002A0001C0400081C0400081C0400081C040008AE
:1002B0001C0400081C04000808B5FFF765FF00BF18
:1002C00000BEFEE71EF0040F0CBFEFF30880EFF353
:1002D00009807146414A10472DE9F04182B0044639
:1002E0008846134B5E6B9F6B9D6A1B6B13F0020F6E
:1002F0000DD00F4BDB6A002B09DA4BF6AB6101F036
:10030000FBF820B14FF00042094BDA620CE00948DB
:1003100001F00AF8CDF800803B46324629462046D7
:1003200001F072F800BEFEE702B0BDE8F08100BF48
:1003300000ED00E0A845000800BEFEE71EF0040F37
:100340000CBFEFF30880EFF309807146244A104791
:100350002DE9F04182B004468846084B5E6B9F6BE6
:100360009D6A074800F0E0FFCDF800803B4632462A
:100370002946204601F048F800BEFEE700ED00E007
:10038000B84500081EF0040F0CBFEFF30880EFF330
:1003900009807146134A10472DE9F04182B00446A6
:1003A0008846084B5E6B9F6B9D6A074800F0BCFF58
:1003B000CDF800803B4632462946204601F024F81D
:1003C00000BEFEE700ED00E0C445000800BEFEE709
:1003D00000BEFEE700BEFEE770470000D90200083D
:1003E000510300089903000800BEFEE708B500F0BD
:0403F00045F808BD07
:1003F4004048000800000020E401002040480008B4
:100404000000001000000010E4010020C8020020D9
:080414000000001000000010C0
:1004200010B5044600F020FE064BA3FB0030800907
:1004300000F0A8F8002221464FF0FF3000F04AF803
:10044000002010BDD34D621008B50B4B1A6842F462
:1004500000721A601A6842F480621A601A6842F4E4
:1004600080721A60032000F017F80F20FFF7D8FF02
:1004700001F0FCF9002008BD003C0240024A13686C
:1004800001331360704700BF80020020014B1868E1
:10049000704700BF8002002010B50446C31E042B25
:1004A00003D9A421094800F035FF094AD36823F491
:1004B000E0631B041B0C240204F4E064234343F0B8
:1004C000BF6343F40033D36010BD00BF0C4300088A
:1004D00000ED00E070B504460E4615460F2A03D91C
:1004E000BC211A4800F016FF0F2E03D9BD21174872
:1004F00000F010FF164BDA68C2F30222C2F10701C6
:10050000042928BF0421131D062B01D9033A00E05A
:100510000022012303FA01F101393140914003FA2D
:1005200002F2013A2A400A43002C06DA04F00F04D2
:100530001201D2B2074B1A5570BD1201D2B204F1AA
:10054000604404F5614484F8002370BD0C43000846
:1005500000ED00E014ED00E010B5041E03DAD02138
:10056000064800F0D7FE620904F01F04012303FAD5
:1005700004F4034B43F8224010BD00BF0C430008B5
:1005800000E100E00138B0F1807F0AD2064B5860EC
:10059000F021064A82F823100020986007221A6092
:1005A00070470120704700BF10E000E000ED00E060
:1005B00010B50446042805D020B140F2B311084814
:1005C00000F0A8FE042C05D1064A136843F004038A
:1005D000136010BD034A136823F00403136010BDB9
:1005E0000C43000810E000E02DE9F04782B080469F
:1005F0000F46A14B984223D003F5806398421FD049
:1006000003F5806398421BD003F58063984217D0AE
:1006100003F58063984213D003F5806398420FD0AE
:1006200003F5806398420BD003F58063984207D0AE
:1006300003F58063984203D0C521904800F06AFE1C
:100640003B881BB9C6218D4800F064FE7B68012BF6
:1006500022D9112B20D0022B1ED0122B1CD0884A5D
:10066000934219D002F58012934215D002F5801200
:10067000934211D0A2F5F81293420DD002F58012E8
:10068000934209D002F58012934205D0032B03D088
:10069000C7217A4800F03EFEBB68022B03D9C8216F
:1006A000764800F037FE002526E10124AC403E6884
:1006B0002640B44240F01F817B68022B01D0122BF0
:1006C00045D13B699BB3092B31D083B37BB373B363
:1006D0006BB3012B2BD02AD0022B28D027D026D0C9
:1006E000032B24D0042B22D021D020D0052B1ED0C8
:1006F0001DD0092B1BD0062B19D0092B17D0072B87
:1007000015D014D013D0082B11D010D00FD0092B36
:100710000DD00CD00A2B0AD009D00C2B07D006D054
:1007200005D00F2B03D0D921544800F0F3FDEA087F
:10073000083258F8220005F0070399000F238B4078
:1007400020EA03003B698B40034348F82230D8F885
:1007500000304FEA450A4FF0030909FA0AF96FEA37
:10076000090903EA09027B6803F0030303FA0AF3A9
:100770001343C8F800307B685A1E012A03D9112B95
:1007800001D0122B1BD1FB68032B03D9EC213B4872
:1007900000F0C0FDD8F8083009EA0302FB6803FA4C
:1007A0000AF31343C8F80830D8F8043023EA0404E5
:1007B0007B68C3F30013AB401C43C8F80440D8F86F
:1007C0000C3009EA0309BB6803FA0AF349EA030398
:1007D000C8F80C307B6813F0805F00F08C80002339
:1007E0000193284B5A6C42F480425A645B6C03F4C8
:1007F00080430193019BA9088A1C234B53F82200D4
:1008000005F003039B000F229A4020EA02001A4AD7
:10081000904521D002F5806290451FD002F580629C
:1008200090451DD002F5806290451BD002F5806294
:10083000904519D002F58062904517D002F580628C
:10084000904515D002F58062904513D002F5806284
:1008500090451BD108221AE0002218E0012216E080
:10086000022214E0032212E0042210E005220EE02E
:1008700006220CE007220AE0000002404043000884
:10088000000011100038024000380140092202FA2D
:1008900003F3034302311B4A42F821301A4B1A6812
:1008A000F34302EA0301786810F4803F01D046EA7E
:1008B0000201154A1160526803EA0201786810F4D7
:1008C000003F01D046EA02010F4A5160926803EAF4
:1008D0000201786810F4801F01D046EA02010A4A3A
:1008E0009160D2681340796811F4001F01D046EA84
:1008F0000203054AD36001350F2D7FF6D6AE02B054
:10090000BDE8F08700380140003C014038B505469D
:100910000C4621B94FF4C871044800F0FBFC2B6968
:100920001C4201D0012038BD002038BD40430008E2
:1009300038B504460D4621B94FF4E471034800F080
:10094000E9FC61696940616138BD00BF404300084E
:1009500030B583B0044603680F2B03D9F6219C48B9
:1009600000F0D8FC236813F0010F45D06368012B19
:1009700005D9052B03D0FB21954800F0CBFC954B06
:100980009B6803F00C03042B0AD0924B9B6803F086
:100990000C03082B0CD18F4B5B6813F4800F07D02E
:1009A0008C4B1B6813F4003F26D0636823BBCCE15B
:1009B0002279894B1A7063687BB1FFF767FD0546A2
:1009C00005E0FFF763FD401B642800F2C081814B06
:1009D0001B6813F4003FF4D00EE0FFF757FD054607
:1009E00005E0FFF753FD401B642800F2B281794B0C
:1009F0001B6813F4003FF4D1236813F0020F6AD090
:100A0000E368012B04D940F22D11714800F082FCFB
:100A100023691F2B04D94FF497716D4800F07AFCBD
:100A20006C4B9B6813F00C0F0AD06A4B9B6803F069
:100A30000C03082B1BD1674B5B6813F4800F16D196
:100A4000644B1B6813F0020F03D0E368012B40F0E6
:100A500082816048036823F0F8012369F82292FA42
:100A6000A2F2B2FA82F293400B43036033E0E368F0
:100A7000FBB10122594B1A60FFF708FD054605E05E
:100A8000FFF704FD401B022800F26781514B1B68F1
:100A900013F0020FF4D04F48036823F0F8012369E4
:100AA000F82292FAA2F2B2FA82F293400B43036068
:100AB00011E00022494B1A60FFF7E8FC054605E00B
:100AC000FFF7E4FC401B022800F24981414B1B6800
:100AD00013F0020FF4D1236813F0080F2ED06369CE
:100AE000012B04D94FF4B771394800F013FC636946
:100AF00093B101223A4B1A60FFF7C8FC054605E0A6
:100B0000FFF7C4FC401B022800F22B81314B5B6FC6
:100B100013F0020FF4D011E00022314B1A60FFF7FE
:100B2000B5FC054605E0FFF7B1FC401B022800F2CA
:100B30001A81284B5B6F13F0020FF4D1236813F076
:100B4000040F60D0A368012B06D9052B04D04FF405
:100B5000CC711F4800F0DEFB002301931D4B1A6C83
:100B600042F080521A641B6C03F080530193019B86
:100B70001C4A136843F480731360FFF787FC054633
:100B800005E0FFF783FC401B022800F2EE80154BC6
:100B90001B6813F4807FF4D0227A134B1A70A36879
:100BA0008BB1FFF773FC054607E0FFF76FFC401BB6
:100BB00041F28833984200F2DA80064B1B6F13F043
:100BC000020FF2D01FE0FFF761FC054616E000BF00
:100BD00080430008003802400238024000004742CB
:100BE000800E47420070004070380240FFF74EFC14
:100BF000401B41F28833984200F2BB80634B1B6F6D
:100C000013F0020FF2D1A369022B04D940F2CD11E7
:100C10005F4800F07FFBA369002B00F0AC805B4ACB
:100C2000926802F00C02082A00F0A780022B79D10A
:100C3000E3693BB1B3F5800F04D04FF4EB71544836
:100C400000F068FB236A3F2B04D940F2D7115048CB
:100C500000F060FB636A323BB3F5BF7F04D94FF409
:100C6000EC714B4800F056FBA36A022B0AD0042B10
:100C700008D0062B06D0082B04D040F2D9114448E6
:100C800000F048FBE36A043B0B2B04D94FF4ED71F1
:100C90003F4800F03FFB00223E4B1A60FFF7F6FB97
:100CA000054604E0FFF7F2FB401B022867D8374BEC
:100CB0001B6813F0007FF5D1E169236A1943636A69
:100CC00047F6C07292FAA2F2B2FA82F29340194346
:100CD000A36A5B085A1E4FF4403393FAA3F3B3FAA6
:100CE00083F302FA03F30B43E26A4FF0706191FA67
:100CF000A1F1B1FA81F18A401343244A53600122E1
:100D0000244B1A60FFF7C2FB044604E0FFF7BEFB6A
:100D1000001B022835D81D4B1B6813F0007FF5D04F
:100D2000002031E000221B4B1A60FFF7AFFB0446A6
:100D300004E0FFF7ABFB001B022824D8134B1B6811
:100D400013F0007FF5D100201EE001201CE00320FD
:100D50001AE0032018E0012016E0032014E003202D
:100D600012E0032010E003200EE003200CE003203B
:100D70000AE0032008E0002006E0012004E0032050
:100D800002E0032000E0032003B030BD0038024041
:100D9000804300086000474270B504460D46036872
:100DA000013B0E2B04D94FF40E71834800F0B2FAC8
:100DB000072D04D940F239217F4800F0ABFA7F4B70
:100DC0001B6803F00F039D4208D9EBB27B4A1370F6
:100DD000136803F00F039D4240F0DB80236813F09B
:100DE000020F1DD0A368A3B1802B12D0902B10D07E
:100DF000A02B0ED0B02B0CD0C02B0AD0D02B08D0FB
:100E0000E02B06D0F02B04D04FF414716A4800F0A8
:100E100081FA6B498B6823F0F002A36813438B605F
:100E2000236813F0010F64D06368032B04D940F2E8
:100E30005721614800F06EFA6268012A05D1604BC3
:100E40001B6813F4003F0FD1A5E0931E012B05D8BA
:100E50005B4B1B6813F0007F06D19EE0584B1B686C
:100E600013F0020F00F09B8055498B6823F00303B9
:100E700013438B60FFF70AFB06466368012B0FD113
:100E800007E0FFF703FB801B41F28833984200F232
:100E900088804B4B9B6803F00C03042BF1D128E0B6
:100EA000022B0ED106E0FFF7F1FA801B41F28833E6
:100EB000984278D8424B9B6803F00C03082BF2D180
:100EC00017E0032B10D13E4B9B68FFF7DFFA801B26
:100ED00041F288339842F6D967E0FFF7D7FA801BD2
:100EE00041F28833984262D8354B9B6813F00C0F5F
:100EF000F3D1324B1B6803F00F039D4207D2EAB2D5
:100F00002E4B1A701B6803F00F039D4251D12368CA
:100F100013F0040F19D0E36883B1B3F5805F0DD0EF
:100F2000B3F5A05F0AD0B3F5C05F07D0B3F5E05FBB
:100F300004D040F2B521204800F0ECF920498B683C
:100F400023F4E052E36813438B60236813F0080F27
:100F50001AD0236983B1B3F5805F0DD0B3F5A05FDC
:100F60000AD0B3F5C05F07D0B3F5E05F04D04FF40B
:100F70002F71114800F0CEF9114A936823F46043B1
:100F8000216943EAC10393600F20FFF749FA00206B
:100F900070BD012070BD012070BD012070BD012019
:100FA00070BD032070BD032070BD032070BD032001
:100FB00070BD012070BD00BF80430008003C0240AE
:100FC00000380240254B9B6803F00C03042B3FD0F4
:100FD000082B01D02248704710B4204B586800F00D
:100FE0003F005B6813F4800F10D01E4BB3FBF0F092
:100FF0001A4B5A6847F6C0710A4091FAA1F3B3FA46
:1010000083F322FA03F303FB00F310E0144BB3FB6A
:10101000F0F0124B5A6847F6C07402EA040194FAE1
:10102000A4F2B2FA82F221FA02F202FB00F30B4AB6
:10103000506800F440324FF4403090FAA0F0B0FA1B
:1010400080F022FA00F001304000B3FBF0F001E044
:10105000044870475DF8044B704700BF00380240F9
:101060000024F40000127A0008B5FFF7ABFF084B2C
:101070009B6803F0F002F02393FAA3F3B3FA83F32F
:1010800022FA03F3034AD35CD840034B186008BD2F
:1010900000380240704300080C000020704700BF79
:1010A0000368454A904214D0B0F1804F13D0A2F5A6
:1010B0007C42904211D002F5806290420FD002F53E
:1010C000806290420DD002F5784290420BD101220D
:1010D0000AE0012208E0012206E0012204E00122E8
:1010E00002E0012200E000221AB123F070034A68F6
:1010F0001343314A90422CD0B0F1804F2BD0A2F54F
:101100007C42904229D002F58062904227D002F5BD
:101110008062904225D002F57842904223D002F5B9
:101120007052904221D002F5806290421FD002F5A9
:10113000806290421DD0A2F5983290421BD002F5F9
:101140008062904219D002F58062904217D101224C
:1011500016E0012214E0012212E0012210E0012237
:101160000EE001220CE001220AE0012208E0012247
:1011700006E0012204E0012202E0012200E0002258
:101180001AB123F44073CA68134303608B68C362C7
:101190000B688362084B984205D003F58063984240
:1011A00003D1012302E0012300E000230BB10B690E
:1011B00003630123436170470000014000286DD0A4
:1011C00010B504460368364A934236D0B3F1804FD7
:1011D00033D0A2F57C4293422FD002F58062934235
:1011E0002BD002F58062934227D002F580629342B1
:1011F00023D002F5806293421FD002F570429342E1
:101200001BD002F57052934217D002F580629342D0
:1012100013D002F5806293420FD0A2F59832934228
:101220000BD002F58062934207D002F580629342B0
:1012300003D0D9211B4800F06DF8A3685BB1102BD7
:1012400009D0202B07D0402B05D0602B03D0DA210A
:10125000144800F05FF823694BB1B3F5807F06D0E6
:10126000B3F5007F03D0DB210E4800F053F894F86B
:10127000393013F0FF0F05D1002384F838302046B1
:10128000FFF70CFF022384F83930211D2068FFF797
:1012900007FF012384F83930002010BD012070477A
:1012A00000000140B0430008FEE700BF08B5034856
:1012B00000F052F80120FFF7F7FF00BFE0430008FD
:1012C00008B50D4B1B6813B90C4A0B4B1A600A4B3F
:1012D0001A68C31C23F00303134409498B4206D93F
:1012E00000F0C6FA0C2303604FF0FF3008BD02493E
:1012F0000B60104608BD00BFE8010020C8020020B6
:1013000000FC012001230360014B0B60704700BF0C
:101310000400002008B50A460146024800F004F81F
:10132000FFF7C4FF344400080FB400B583B004AB2A
:1013300053F8042B01938021064800F041FF002858
:1013400003DD0146034800F049F803B05DF804EB03
:1013500004B07047F001002010B5044600F0FCFE18
:101360000146204600F03AF80121024800F036F824
:1013700010BD00BF244500082DE9F04385B00446A8
:101380000F46435613BB042528462146ABBE0446F0
:101390001FE03546102E28BF1025002306E014F963
:1013A000011B04AA1A4402F8101C0133AB42F6D305
:1013B00004AA1344002203F8102CE9464FF0040855
:1013C00040464946ABBE8046761B00E00E46002EE6
:1013D000DFD1384605B0BDE8F08300BF08B5FFF7A0
:1013E000CBFF08BD08B500F097F8054B054A9A6099
:1013F000D3F8882042F47002C3F8882008BD00BFEB
:1014000000ED00E000000008F8B504460D46174660
:101410001E462648FFF788FF21682548FFF784FF0E
:1014200061682448FFF780FFA1682348FFF77CFF2D
:10143000E1682248FFF778FF21692148FFF774FF30
:1014400061692048FFF770FFA1691F48FFF76CFF33
:10145000E1691E48FFF768FF1D48FFF765FF294651
:101460001C48FFF761FF1C4CE16A1C48FFF75CFF5A
:10147000216B1B48FFF758FFE16B1A48FFF754FF39
:1014800015F0800F03D039461748FFF74DFF15F4CC
:10149000004F03D031461548FFF746FF1448FFF7C9
:1014A00043FF06991348FFF73FFFF8BD8C4400083F
:1014B0009C440008AC440008BC440008CC4400082C
:1014C000DC440008EC440008FC4400080C4500081B
:1014D0001C4500082845000800ED00E038450008DC
:1014E0004845000858450008684500087845000848
:1014F000884500089045000883691A888A4207D108
:101500000268033A012A05D802338361012070473B
:1015100000207047002070470F49D1F8883043F40D
:101520007003C1F888300D4B1A6842F001021A604E
:10153000002098601A6822F0847222F480321A60C7
:10154000074A5A601A6822F480221A60D8604FF065
:1015500000638B60704700BF00ED00E00038024080
:1015600010300024224B9B6803F00C03042B07D09F
:10157000082B09D0002B2DD11E4A1F4B1A602CE0DE
:101580001E4A1D4B1A6028E0194B5A685B6803F02D
:101590003F0312F4800F09D0184AB2FBF3F2144B48
:1015A0005B68C3F3881303FB02F208E0114AB2FB45
:1015B000F3F30F4A5168C1F3881101FB03F20C4B9E
:1015C0005B68C3F3014301335B00B2FBF3F30A4AE8
:1015D000136002E0074A084B1A60054B9B68C3F38F
:1015E0000313074AD15C044A1368CB401360704769
:1015F000003802400024F4000C00002000127A00A1
:10160000D445000830B595B000240194214B1A6CE4
:1016100042F080521A641B6C03F080530193019BCB
:1016200002941D4B1A6842F480421A601B6803F44E
:1016300080430293029B0123089309934FF4800394
:101640000F93082310934FF4A8731193022512955A
:10165000072313930E9508A8FFF77AF90F23039336
:10166000049505944FF4A05306934FF480530793C9
:10167000052103A8FFF790FBFFF7F6FC074BA3FB40
:1016800000308009FEF77EFF0420FEF791FF15B0C1
:1016900030BD00BF0038024000700040D34D6210E2
:1016A00008B5FEF7D1FEFFF7ADFFFFF75BFF08BD02
:1016B00010B586B09DF920400190029104920393E9
:1016C00000230593412C04D101A91048FEF78CFF9B
:1016D0001AE0422C04D101A90D48FEF785FF13E062
:1016E000432C04D101A90B48FEF77EFF0CE0442CEB
:1016F00004D101A90548FEF777FF05E0452C03D189
:1017000001A90548FEF770FF06B010BD000C0240AD
:1017100000040240000802400010024000B583B0FF
:10172000009200230122FFF7C3FF03B05DF804FB22
:1017300010B582B000230193144A116C41F00201EC
:101740001164126C02F002020192019A104C114ACB
:1017500022603122E26042F2CF026260A360236124
:101760002046FFF72BFD0A2211461D20FEF7B2FE90
:101770001D20FEF7F1FE2368DA6842F00102DA600C
:101780001A6842F001021A6002B010BD003802402F
:10179000880200200004004008B5442201214FF4D3
:1017A0008050FFF7BBFF412200210120FFF7B6FF69
:1017B00008BD00BF00B583B0FEF746FE00210091D2
:1017C000134B1A6B42F008021A631A6B02F00802FC
:1017D0000092009A01911A6B42F001021A631B6B8E
:1017E00003F001030193019BFFF7A2FFFFF7D4FF72
:1017F000002200E00122074B1B68002BFAD1002ACF
:10180000F6D04FF480510448FFF792F8F0E700BF9C
:101810000038024070020020000C024008B50F4B57
:101820001B686FF001021A6101210D48FFF76EF885
:1018300048B10C4B1B6813B101220B4B1A600122FB
:10184000084B1A6008BD074B1B6813B90022064BF2
:101850001A600022034B1A6008BD00BF88020020F6
:10186000000002407402002070020020704700BF98
:10187000014B1868704700BF700000202DE9FF473A
:1018800055EC104B0D9FDDF830A0002D0E46914613
:101890001946B8BF22462B4627F02007BBBF05F1EB
:1018A00000431D4600232D23B8BF1446462F0B705E
:1018B00003D0452F03D1013601E0032100E00221CE
:1018C00003AB019302AB00933246534645EC104BF9
:1018D00000F016FD472F804602D119F0010F28D0E5
:1018E000462F08EB060911D198F80030302B0AD1A9
:1018F000002200232046294602F098FC18B9C6F1C0
:101900000106CAF80060DAF800309944002200238A
:101910002046294602F08AFC08B9302202E0CDF8C0
:101920000C9006E0039B994503D9591C03911A704A
:10193000F8E7039B0E9AC8EB03034046136004B01C
:10194000BDE8F08773B503460029B8BF494203F8E4
:10195000022BB4BF2D222B220929427019DD0DF173
:10196000070216460A2591FBF5F405FB14113031E8
:10197000092C02F8011D2146F5DC3031541E02F815
:10198000011CB4421A460AD214F8012B03F8012BA9
:10199000F7E730241A46214402F8024B5970101A16
:1019A00002B070BD2DE9F04F8DB00C46DDF85880C7
:1019B00016461F46054601F043FA0368049318468D
:1019C00000F0CAFB00230A93D8F8003005900733D3
:1019D00023F0070303F1080294F818A0D4F800B02C
:1019E000C8F80020D3E90023C4E91223D4E91289FE
:1019F00029F000430793CDF818804FF0FF32A64B33
:101A0000DDE9060102F044FCA0B94FF0FF32A24B21
:101A1000DDE9060102F01EFC60B900220023404609
:101A2000494602F00DFC10B12D2384F843309B4B46
:101A30009B4A0AE042464B464046494602F028FC93
:101A4000002800F09081974B974ABAF1470F8CBF5E
:101A50009046984603232BF00402236122604FF046
:101A600000093BE0BAF1670F00F08581BAF1470F3A
:101A700000F08181002303930AAB029309AB00932A
:101A800049EC108B0DF123032260CDF804A06168AE
:101A90002846FFF7F3FE0AF0DF03472B804600F0ED
:101AA0007F81BAF1650F099900F2888101395246A8
:101AB00004F150000991FFF745FF0A9A8318012AA3
:101AC0008146236100F377812268D10700F1738199
:101AD0009DF8233013B12D2384F84330009733460B
:101AE0000BAA2146284600F09BF9013002D14FF0A5
:101AF000FF3091E123685A0501D4236965E0BAF10A
:101B0000650F40F2D58000220023D4E9120102F0D3
:101B10008DFB78B30123654A31462846B84701302A
:101B2000E5D00A9B099A9A420BDB2368D80708D4B0
:101B300023689B0740F111814FF0000804F1190957
:101B400006E1059B049A31462846B8470130CED0BD
:101B50004FF0000804F11A090A9B013B9845E7DAA7
:101B600001234A4631462846B8470130BFD008F124
:101B70000108F1E7099B002B29DC01234B4A314680
:101B80002846B8470130B2D0099B23B90A9B13B944
:101B90002368D907CCD5059B049A31462846B84717
:101BA0000130A4D04FF0000904F11A0A099B5B42EE
:101BB000994509DA0123524631462846B847013093
:101BC00095D009F10109F1E70A9B4246A7E00A9A7C
:101BD000A36D9A42A8BF1A46002A914606DC4FF030
:101BE000000A29EAE97904F11A0B11E0134631469B
:101BF00042462846B8470130F1D178E701235A46DA
:101C000031462846B84701303FF471AF0AF1010A66
:101C1000A36DC9EB03029245F0DB08EB0309099AB7
:101C20000A9B9A420FDB2368DA070CD40A9B099AB5
:101C30009844C9EB08089B1A9845A8BF9846B8F184
:101C4000000F08DC0FE0059B049A31462846B84790
:101C50000130EBD14BE743464A4631462846B84768
:101C600001303FF444AF4FF0000928EAE87804F16E
:101C70001A0A09E00123524631462846B847013086
:101C80003FF435AF09F10109099A0A9B9B1AC8EB89
:101C900003039945EEDB4BE7FFFFEF7FE4450008C8
:101CA000E8450008EC450008F0450008F445000848
:101CB0000A9A012A01DCDB0738D501234246314666
:101CC0002846B84701303FF412AF059B049A3146CD
:101CD0002846B84701303FF40AAF00220023D4E978
:101CE000120102F0A3FA20B14FF0000804F11A0A21
:101CF0000EE00A9B08F10102013B19E00123524664
:101D000031462846B84701303FF4F1AE08F10108EA
:101D10000A9B013B9845F1DB4B4604F150023146EA
:101D20002846B84701307FF403AFE0E6012342467E
:101D300031462846B8470130EED1D8E601234A465D
:101D400031462846B84701303FF4D1AE08F10108CA
:101D5000E3680B9A9B1A9845F0DBE0680B9B98426E
:101D6000B8BF184658E061684B1C4BF480627FF4A2
:101D700079AE062301E011B9012363607AE60023FE
:101D800003930AAB029309AB009349EC108B2260DA
:101D9000CDF804A00DF123032846FFF76FFD804620
:101DA000099BD81C02DB626893421DDDAAF1020A7E
:101DB0005FFA8AFA75E60133236189E6BAF1660FA4
:101DC00014D10029636807DD216113B92268D207A5
:101DD0001DD501330B4419E013B92268D00701D592
:101DE000023313E0012311E04FF0670A099B0A9ABE
:101DF000934205DB22682361D10708D5013305E052
:101E0000002BD4BFC3F10203012313442361099BB8
:101E1000A3654FF000095BE60DB0BDE8F08F00BF91
:101E20002DE9F04791461F460A698B68DDF820804E
:101E30009342B8BF1346C9F8003091F843200646D4
:101E40000C4612B10133C9F800302368990642BF2D
:101E5000D9F800300233C9F80030256815F00605BE
:101E600010D104F1190A07E00123524639463046E1
:101E7000C04701301AD00135E368D9F800209B1A19
:101E80009D42F1DB94F843302268003318BF0123F0
:101E900092060FD5E1185A1C302081F843002244E5
:101EA00094F8451082F84310023303E04FF0FF30FE
:101EB000BDE8F08704F1430239463046C04701309F
:101EC000F4D02268D9F80050E36802F00602042A30
:101ED00008BF5D1B2269A3680CBF25EAE5750025D4
:101EE0009342C4BF9B1AED184FF000091A344D45B8
:101EF00009D00123224639463046C0470130D5D0AB
:101F000009F10109F3E70020BDE8F0872DE9F0436E
:101F100017460A7E85B06E2A984606460C460C9BEC
:101F200001F1430E00F0AE8011D8632A22D009D807
:101F3000002A00F0BB80582A40F0CA8081F8452072
:101F4000834955E0642A1ED0692A1CD0C0E0732A58
:101F500000F0B08009D86F2A2ED0702A40F0B880E7
:101F60000A6842F020020A603EE0752A24D0782AEE
:101F70003AD0ADE01A6801F14205111D19601368ED
:101F800084F84230A8E021681A6811F0800F02D06E
:101F9000111D196008E011F0400F02F104011960F1
:101FA00002D0B2F9003000E01368002B3CDA2D2299
:101FB0005B4284F8432037E021681A6811F0800FF3
:101FC00002D0111D196007E011F0400F02F1040169
:101FD000196001D0138800E01368227E5C496F2AE3
:101FE00014BF0A2208221BE078225A4984F84520AF
:101FF0002268186812F0800F00F104051D6003D1FB
:10200000550601D5038800E00368D00744BF42F0BD
:10201000200222601BB9226822F0200222601022D6
:10202000002084F8430001E049490A226568A56060
:10203000002D08DB206820F0040020602BB9002D63
:102040007DD175460CE0002B79D07546B3FBF2F0DC
:1020500002FB1033CB5C05F8013D03460028F5D1A7
:10206000082A0BD12368DA0708D5236962689A42E7
:10207000DEBF302305F8013C05F1FF35C5EB0E034B
:1020800023612EE008681A68496910F0800F03D0B8
:10209000101D1860136808E010F0400F02F10400F2
:1020A0001860136801D0198000E0196000232361D3
:1020B000754616E01A68111D1960156862680021DE
:1020C000284600F0D5FE08B1401B6060636804E05C
:1020D00004F1420584F8422001232361002384F89F
:1020E0004330CDF800803B4603AA21463046FFF737
:1020F00097FE013002D14FF0FF3026E023692A46D7
:1021000039463046C0470130F5D023689B0710D5CB
:10211000002504F1190907E001234A4639463046F3
:10212000C0470130E7D00135E368039A9B1A9D420E
:10213000F2DBE068039B9842B8BF184605E00B78D5
:1021400084F8423004F142058AE705B0BDE8F08327
:10215000F645000807460008034613F8012B002A3D
:10216000FBD1181A0138704730B5141E05469BB0D4
:10217000184604DA8B232B604FF0FF301DE04FF43C
:102180000273ADF80C3014BF04F1FF332346029301
:1021900005934FF6FF7300910491ADF80E3002469F
:1021A0001E9B6946284601F0A9FA431CBCBF8B233D
:1021B0002B6014B1009B00221A701BB030BD0000D0
:1021C00007B5009313460A46014603480068FFF727
:1021D000CBFF03B05DF804FB700000202DE9F74F42
:1021E00003690C699C42804600F38380013C01F145
:1021F00014074FEA840E00F1140657F8245006EB3A
:102200000E030193013556F82430B3FBF5F507EBC7
:102210000E09002D39D04FF0000A3846B446D34697
:1022200050F8042B93B205FB03A34FEA134A9BB269
:10223000C3EB0B03120CBCF800B005FB02A213FAAF
:102240008BF34FEA124A1FFA82FBDCF80020CBEB3B
:10225000124202EB23429BB243EA024381454FEA1A
:10226000224B4CF8043BDBD256F80E306BB9019B85
:10227000043B9E421A4602D3C8F8104005E012689B
:10228000043B002AF8D1013CF3E7404601F059F83D
:1022900000282CDB013530464FF0000E57F8041BA8
:1022A000D0F800C08AB2C2EB0E03090C13FA8CF30B
:1022B000C1EB1C4202EB23429BB243EA0243B94505
:1022C0004FEA224E40F8043BE8D256F8242006EBB1
:1022D000840362B9043B9E421A4602D3C8F81040F8
:1022E00005E01268043B002AF8D1013CF3E72846D8
:1022F00000E0002003B0BDE8F08F00000000000007
:102300002DE9F04F59EC108B97B0456A0691824643
:1023100009921093209CCDE9008945B9102000F066
:102320009DFDCAF82400456085600560C560DAF847
:102330002430196859B15A684A60012393408B6070
:10234000504600F025FEDAF8243000221A60019B86
:102350009F4A002BBFBF01232360019B23F0004352
:10236000B8BF0193019FA4BF0023236027F000435F
:102370001B0D1B0593421DD1109A42F20F7313607F
:10238000009B43B9934A944BC7F31300002814BF32
:102390001846104600E09048219B002B00F04A852B
:1023A000C37813B100F1080300E0C31C219A136045
:1023B00000F040BDDDE9004500220023204629460B
:1023C00001F034FF804658B1109A01231360219B1D
:1023D000002B00F0228581481860013800F02ABDEA
:1023E00014AA15A945EC104B504601F025F8C7F387
:1023F0000A5602905EB1C5F3130343F07F512046A5
:1024000041F44011A6F2FF36CDF844801DE0159B43
:10241000149E1E4406F23243202B0ADD009A06F277
:102420001240C3F1400322FA00F007FA03F3184305
:1024300004E0C3F12000009B03FA00F001F018FC57
:102440000123A1F1F871013E11930022644B01F0C8
:10245000D1FA59A3D3E9002301F080FC58A3D3E9B2
:10246000002301F0C9FA044630460D4601F010FC85
:1024700055A3D3E9002301F071FC02460B46204628
:10248000294601F0B9FA04460D4601F017FF002273
:10249000834600232046294601F0D2FE58B1584613
:1024A00001F0F6FB02460B462046294601F0BEFE2F
:1024B00008B90BF1FF3BBBF1160F0DD8494901EBF1
:1024C000CB01DDE90023D1E9000101F0D7FE30B1F5
:1024D0000BF1FF3B002300E001230D9300E00D9082
:1024E000149B9E1B731E059343BFC3F10009002379
:1024F00005934FF00009BBF1000F07DB059BCDF8FA
:1025000030B05B4405930023079306E0CBF1000352
:1025100007930023CBEB09090C93069B092B27D8C3
:10252000052BC4BF043B0693069BA3F10203CCBF5B
:1025300000250125032B20D8DFE803F0060E020456
:10254000012302E0012308E000230893099B002BEC
:102550001CDD039398461EE000230893099B5B440F
:1025600003F1010803934346012BB8BF012312E096
:10257000012500230693089501E0012308934FF0FD
:10258000FF33039398460022122303E001230393B1
:1025900098461A460992DAF8244000226260042123
:1025A00001F114029A421FD8626801326260490048
:1025B000F6E700BFAFF3008061436F63A787D23FA8
:1025C000B3C8608B288AC63FFB799F501344D33F22
:1025D0000000F07F1846000821460008F545000875
:1025E0000000F83F284600086168504600F09BFC58
:1025F000DAF8243020601B680493B8F10E0F00F263
:102600005D81002D00F05A819DED007BBBF1000F34
:102610008DED0E7B31DDA04A0BF00F0302EBC303FF
:1026200093ED007B4FEA2B14E2068DED0A7B0CD56F
:102630009A4BDDE90E01D3E9082301F0B9FC04F05F
:102640000F04CDE90001032600E00226934D6CB192
:10265000E30708D5DDE90A01D5E9002301F07EFB97
:10266000CDE90A01013664100835F0E7DDE90A23F7
:10267000DDE9000101F09CFC20E0CBF1000404B393
:10268000854B864D04F00F0203EBC203D3E9002310
:10269000DDE90E0101F062FBCDE900012411002308
:1026A000022654B1E70705D5D5E9002301F056FB12
:1026B0000136012364100835F3E71BB1CDE90001B1
:1026C00000E002260D9BEBB1DDE900450022744BD2
:1026D0002046294601F0B4FDA0B1B8F1000F11D099
:1026E000039B002B40F3E6800BF1FF330A9300229B
:1026F0006C4B2046294601F031FB0136CDE9000143
:10270000039F02E0CDF828B04746304601F0C0FAFA
:10271000DDE9002301F022FB0022634B01F06CF99C
:102720000446A1F15075CFB90022604BDDE90001EC
:1027300001F060F922462B46CDE9000101F09EFD33
:10274000002840F04182224605F10043DDE9000106
:1027500001F076FD002840F02E82ABE0089A4E4B47
:10276000791E002A4AD003EBC103D3E900230020DD
:102770004F4901F01DFC22462B4601F03BF9049C19
:1027800005460E46DDE9000101F098FD129001F0CA
:102790007FFA02460B46DDE9000101F02BF9129B9E
:1027A000303304F8013B2A463346CDE9000101F0FD
:1027B00047FD002840F02183DDE90023002038494F
:1027C00001F018F92A46334601F03AFD002840F09E
:1027D000D280049BE31ABB426CDA0022314B2846BC
:1027E000314601F0BBFA002205460E462D4BDDE9CD
:1027F000000101F0B3FACDE90001C3E703EBC10129
:1028000022462B46D1E9000101F0A8FA049BCDE94C
:102810001201DC191D46DDE9000101F04FFD0646FD
:1028200001F036FA303602460B46DDE9000101F0D0
:10283000E1F805F8016BAC42CDE900014FF0000270
:1028400023D11B4BDDE9120101F0D6F802460B46FD
:10285000DDE9000101F012FD002840F08C80DDE987
:1028600012230020124901F0C5F802460B46DDE9AB
:10287000000101F0E5FCE8B114F8013C302B04F153
:10288000FF3240F0BA821446F6E7064B01F066FAD2
:10289000CDE90001BFE700BF28460008F046000868
:1028A0000000F03F0000244000001C4000001440E5
:1028B0000000E03FDDE90E34CDE90034159B002B2C
:1028C0007CDBBBF10E0F79DC8F4B03EBCB03D3E941
:1028D0000067099B002B14DAB8F1000F11DC40F0FF
:1028E0006C810022894B3046394601F037FADDE928
:1028F000002301F0B9FC45464646002840F05F81C0
:1029000066E1049C32463B46DDE9000101F050FBE4
:1029100001F0D4FC054601F0BBF932463B4601F01C
:102920001DFA0B460246DDE9000101F063F805F1EE
:10293000300E04F801EB049BC3EB040EF045CDE927
:1029400000012ED102460B4601F056F8804689461A
:1029500002460B463046394601F072FC78B94246D1
:102960004B463046394601F061FC002800F04782B2
:10297000E90704D443E2DDF828B000E01C4614F86F
:10298000012C392A04F1FF3307D1049A9A42F5D178
:10299000049930220BF1010B0A701A7801321A7077
:1029A0002DE200225A4B01F0D9F900220023CDE993
:1029B000000101F03BFC0028A4D020E2089A002A84
:1029C0002DD0069A012A0ADC119A12B103F2334380
:1029D00002E0149BC3F13603079D4C4615E0079BAC
:1029E00008F1FF35AB42BFBF079B0795EA1A0C9B66
:1029F000B7BF9B185D1B0C930025B8F1000FB9BF42
:102A0000C8EB090400234C464346059A01211A44A9
:102A100050469944059200F05AFB064602E0079D95
:102A2000089E4C465CB1059B002B08DDA342059A2D
:102A3000A8BF2346C3EB0909E41AD31A0593079BE1
:102A4000002B1DDD089BABB185B131462A465046AF
:102A500000F0D8FB029A01460646504600F040FBC3
:102A600002990746504600F093FA0297079B5A1BBB
:102A700006D000E0079A0299504600F0C3FB02908E
:102A80000121504600F023FB0C9B05465BB31A4620
:102A90000146504600F0B6FB069B012B054618DCAC
:102AA000009B83B9019BC3F3130373B9019B23F00C
:102AB00000473F0D3F054FB1059B013309F1010967
:102AC0000593012702E0002700E0009F0C9B73B1F3
:102AD00000E000272B6905EB8303186900F0AAFAD0
:102AE000C0F1200004E0069B012BD9DD0C9F0120E2
:102AF000059B184410F01F000ED0C0F12003042BDA
:102B000008DDC0F11C0008E0284600080000144061
:102B10000000244006D018461C30059B0344814425
:102B200004440593B9F1000F05DD4A460299504669
:102B300000F0B6FB0290059B002B05DD29461A46E6
:102B4000504600F0ADFB05460D9BEBB129460298BF
:102B500000F0F7FB002817DA00230A2202995046FA
:102B600000F02DFA089B02900BF1FF3B002B00F0C8
:102B70005881002331460A22504600F020FA039B78
:102B8000002B064637DC33E0B8F1000F2ADC069B49
:102B9000022B27DDCDF80C80039B83B92946052243
:102BA000504600F00CFA01460546029800F0C9FBB9
:102BB00000280DDC03E03D4600E000252E46099B81
:102BC000049C6FEA030B0AE0DDF828B03D463E4660
:102BD000049B049A5C1C312313700BF1010BB0466B
:102BE0000026F7E0089BCDF80C8023B9049CB1E0E7
:102BF000069B022BD0DC002C05DD314622465046D8
:102C000000F04EFB06469FB17168504600F08BF90C
:102C1000326902320446920006F10C010C3000F0D9
:102C200077F901222146504600F03AFB804600E049
:102C3000B046009BDDF8109003F001030593294690
:102C40000298FFF7CBFA3146044600F130070298AC
:102C500000F077FB424600902946504600F08DFB7D
:102C6000C36802463BB901460790029800F069FB31
:102C7000079A034600E0012311465046079300F0EF
:102C800087F9079B4BB9069A3AB9059A2AB9392FA1
:102C900028D0009B002B1ADC1BE0009A002A04DBE2
:102CA0001AD1069AC2B9059AB2B9002B11DD0122D8
:102CB0000299504600F0F4FA2946029000F041FBD8
:102CC000002802DC05D1FA0703D5392F0AD004F118
:102CD000310709F101040CE0002B09F101040BDDBF
:102CE000392F05D1392389F8003009F1010954E061
:102CF000013789F800706DE0049B039A04F8017CA9
:102D0000E31A9342A1463AD000230A220299504680
:102D100000F055F9464502904FF000034FF00A02CB
:102D20003146504604D100F04AF90646804686E70F
:102D300000F045F94146064600230A22504600F0BD
:102D40003EF980467BE700230A220299504600F0B4
:102D500036F9029029460298FFF740FA00F1300751
:102D600004F8017B049B039AE31A9342EBDB049B78
:102D7000012AACBF9B180133B046994600260122B8
:102D80000299504600F08CFA2946029000F0D9FAD8
:102D9000002802DC15D1FB0713D54C4614F8013C82
:102DA000392B04F1FF3209D1049B934204D10BF17A
:102DB000010B3123049A02E01446EFE7013313704C
:102DC00008E04C4614F8013C302B04F1FF3201D1ED
:102DD0001446F7E72946504600F0DAF8B8F1000F3C
:102DE0000DD02EB1464503D03146504600F0D0F804
:102DF0004146504600F0CCF801E0DDF828B00299D9
:102E0000504600F0C5F80023109A23700BF101031F
:102E10001360219B1BB11C6001E008480AE0049884
:102E200008E0039B002B3FF7E1AE069B022B7FF7E8
:102E3000DDAEB1E617B0BDE8F08F00BFF445000885
:102E4000044B1B68186A044B002808BF1846F03072
:102E5000704700BF7000002074000020024B014644
:102E6000186800F093BB00BF700000200000000055
:102E700001F0FF01102A2BDB10F0070F08D010F82B
:102E8000013B013A8B422DD010F0070F42B3F6D12F
:102E9000F0B441EA012141EA014122F007047FF048
:102EA00000070023F0E80256083C85EA010586EA9F
:102EB000010685FA47F5A3FA87F586FA47F6A5FADB
:102EC00087F68EB9EED1F0BC01F0FF0102F00702E7
:102ED00032B110F8013B013A83EA010313B1F8D192
:102EE0000020704701387047002D06BF3546033873
:102EF000073815F0010F07D1013015F4807F02BFAC
:102F0000013015F4C03F0130F0BC0138704700BFFC
:102F100010B5431E0A44914204D011F8014B03F846
:102F2000014FF8E710BD70B5456A04460E463DB93D
:102F30001020FFF793FF6062456085600560C56003
:102F4000656AEB6843B1636ADB6853F8260078B1C1
:102F5000026843F8262017E021220421204600F0D1
:102F6000B9FA636AE860DB68002BECD1002070BD21
:102F7000012101FA06F56A1D9200204600F0AAFA26
:102F80000028F3D04660856000230361C36070BDF4
:102F900070B5446A06460D463CB91020FFF75EFF47
:102FA0007062446084600460C4603DB1736A6A68A2
:102FB000DB6853F82210296043F8225070BD2DE9D8
:102FC000F0410D691F4606460C4601F1140E002320
:102FD000DEF8000081B202FB01710F0C000C02FB55
:102FE000007089B2013301EB00419D424FEA104766
:102FF0004EF8041BECDCD7B1A3689D4212DB61687C
:1030000030460131FFF78FFF2269023204F10C01D3
:10301000804692000C30FFF77BFF21463046FFF7D9
:10302000B7FF444604EB850301355F612561204607
:10303000BDE8F081030C1B0413B90004102300E069
:10304000002310F07F4F04BF0002083310F0704FD0
:1030500004BF0001043310F0404F04BF800002336E
:10306000002803DB420003D5581C70471846704700
:1030700020207047036813F007020BD0D90722D431
:103080009A074BBF5B089B08036003604CBF01209D
:103090000220704799B209B91B0C102213F0FF0FE0
:1030A00004BF1B0A0832190704BF1B090432990721
:1030B00004BF9B080232D90702D45B0805D0013255
:1030C000036010467047002070472020704710B5FD
:1030D0000C460121FFF727FF01224461026110BD68
:1030E0002DE9F74F14460A6923699A42B8BF0B4687
:1030F0008846BCBFA0461C46D8F81070D4F8109083
:10310000D8F80830D8F8041007EB09069E42C8BF6B
:103110000131FFF708FF00F1140505EB860C2B4683
:103120000022634502D243F8042BFAE704F11402AB
:1031300008F1140102EB890301EB87070093009B60
:103140000192934257D9B2F800B0BBF1000F23D0DF
:103150008946AE464FF0000859F8044BBEF800A06F
:10316000A3B20BFB03A34FEA144ADEF8004043442A
:103170004FEA14480BFB0A8404EB1344F2469BB25B
:1031800043EA04434F454FEA14484AF8043B01D947
:10319000D646E1E7CEF80480019BB3F802A00432E2
:1031A000BAF1000F21D02B682C4689464FF0000859
:1031B000B9F800E0B4F802B00AFB0EBEF044A34632
:1031C0009BB243EA08434BF8043B59F8043BB4F87C
:1031D00004E01B0C0AFB03E303EB18434F454FEAE3
:1031E000134801D95C46E3E763600435A7E75CF860
:1031F000043D13B9013E002EF9DC066103B0BDE8C1
:10320000F08F00002DE9F843154612F00302064640
:103210000F4607D0013A214C002354F82220FFF733
:10322000CEFE0746AD1036D0746A3CB91020FFF7C9
:1032300015FE7062446084600460C460D6F8248027
:10324000D8F808404CB940F271213046FFF73FFFF3
:103250000023C8F80800044603604FF00008EB079D
:103260000AD5394622463046FFF73AFF39468146AD
:103270003046FFF78DFE4F466D100CD0206808B128
:103280000446ECE7224621463046FFF729FF20603E
:10329000C0F80080F4E73846BDE8F8831847000816
:1032A0002DE9F0470C464FEA621A26694968A3687F
:1032B000564407469146751CAB4202DA01315B0069
:1032C000FAE73846FFF72FFE0023804600F114018D
:1032D0001A46534503DA41F823200133F9E72AEA75
:1032E000EA73206901EB830319F01F0904F114014B
:1032F00001EB800E14D0C9F1200C0022086800FAFE
:1033000009F002439A4643F8042B51F8042B8E45EA
:1033100022FA0CF2F2D8CAF8042042B1B51C06E039
:10332000043B51F8042B43F8042F8E45F9D8013D96
:103330003846C8F810502146FFF72AFE4046BDE83F
:10334000F08703690A699B1A10B511D192001430F5
:10335000143183180A4453F8044D52F8041D8C426A
:1033600002D007D3012010BD9842F4D3002010BD35
:10337000184610BD4FF0FF3010BD2DE9F8430C4644
:103380000746114620461546FFF7DBFF061E08D10B
:1033900031463846FFF7C7FD012303614661BDE8AA
:1033A000F883BCBF23462C4638466168BABF1D4629
:1033B00001260026FFF7B7FD2B69C660266905F1D7
:1033C0001409143404EB860709EB830800F1140593
:1033D0004FF0000C54F8043B59F8042B1CFA83F10D
:1033E0001FFA82FE120CCEEB0101C2EB134303EB7A
:1033F000214389B24FEA234CC84541EA0343A6461C
:1034000045F8043BE6D8BE450ED25EF8041B1CFA14
:1034100081F2131403EB114392B242EA03424FEAE2
:10342000234C45F8042BEEE755F8043D0BB9013E5B
:10343000FAE70661BDE8F8832DE9F7430E4601215E
:1034400059EC108B1546FFF76EFDC9F30A54074679
:10345000C9F313030CB143F480130193B8F1000FC7
:1034600019D002A840F8088DFFF704FE009B48B170
:10347000019AC0F1200102FA01F10B43C2407B61C5
:10348000019200E07B61019BBB61002B14BF022114
:103490000121396107E001A8FFF7ECFD019B7B6189
:1034A00001213961203034B1A4F233440444346042
:1034B000C0F1350009E007EB8103A0F23240306033
:1034C0001869FFF7B7FDC0EB41102860384603B01C
:1034D000BDE8F08338B502FB01F4214600F056F850
:1034E000054618B12246002100F039FA284638BDB9
:1034F00038B50546002946D051F8043C0C1F002B76
:10350000B8BFE41800F033FA1F4A1368114613B924
:103510006360146032E0A3420ED92268A01883428F
:1035200004BF18685B68636004BF121822600C60F7
:1035300024E0A24203D813465A68002AF9D1186839
:103540001918A1420BD12168014458188242196010
:1035500014D1106852685A60014419600EE002D913
:103560000C232B600AE021686018824204BF1068B7
:103570005268626004BF091821605C602846BDE89B
:10358000384000F0F5B938BD7C02002070B5CD1C84
:1035900025F0030508350C2D38BF0C25002D0646F7
:1035A00001DBA94202D90C23336046E000F0DFF9C9
:1035B000234B1C681A462146A1B10B685B1B0ED435
:1035C0000B2B03D90B60CC18CD501EE08C420DBFE5
:1035D00063684B686360136018BF0C4615E00C46C7
:1035E0004968E9E7174C23681BB9304600F07AF9BF
:1035F00020602946304600F075F9431C18D0C41CE1
:1036000024F00304A0420DD12560304600F0B0F94B
:1036100004F10B00231D20F00700C31A0ED05A42FC
:10362000E25070BD211A304600F05CF90130EBD158
:103630000C233360304600F09BF9002070BD00BFC2
:103640007C020020780200202DE9F0478E689E421F
:1036500082460C46914698463ED88A8912F4906F6D
:103660003AD0256809696F1A6569022305EB45059B
:1036700095FBF3F57B1C43449D4238BF1D46530523
:103680000FD52946FFF782FF064698B13A462169D1
:10369000FFF73EFCA38923F4906343F08003A381EA
:1036A00013E02A4600F065F9064670B921695046D4
:1036B000FFF71EFF0C23CAF80030A38943F0400334
:1036C000A3814FF0FF30BDE8F087266165613E447D
:1036D000ED1B2660A5604646464528BF4646324655
:1036E0004946206800F020F9A3689B1BA36023686B
:1036F0001E4426600020BDE8F08700002DE9F04F51
:103700009DB0804603938B891C060D4616460DD549
:103710000B695BB94021FFF739FF2860286118B9B0
:103720000C23C8F80030CDE040236B6100230993DF
:1037300020238DF82930DFF89CB130238DF82A3012
:1037400037463C4614F8013B1BB9B7EB060910D0CD
:1037500003E0252BF9D02746F3E74B4632462946AE
:103760004046FFF771FF013000F0A780099B4B44F2
:1037700009933B78002B00F0A08000234FF0FF322C
:1037800004930793059206938DF853301A930126FC
:10379000052221784E48FFF76BFB671C049B38B16C
:1037A0004B4A801A06FA00F0184304903C46EFE7B3
:1037B000D90644BF20228DF853201A0744BF2B227C
:1037C0008DF8532022782A2A03D0079A00210A2054
:1037D0000BE0039A111D12680391002A10DA52427D
:1037E00043F00200079204900BE0274601343B7837
:1037F000303B092B03D800FB02320121F5E701B170
:1038000007923B782E2B1ED17B782A2B0AD1039B63
:103810001A1D1B680392002BB8BF4FF0FF3302370D
:10382000059310E000230593781C19460A240746E7
:1038300001303A78303A092A03D804FB01210123E8
:10384000F5E703B10591032239782248FFF710FB11
:1038500040B14023CBEB000003FA00F0049B184377
:103860000490013739781C488DF8281006227E1CF8
:10387000FFF7FEFA88B1194B33B9039B073323F0E6
:1038800007030833039314E003AB00932A46144B59
:1038900004A94046FEF786F807E003AB00932A46EA
:1038A0000F4B04A94046FEF731FBB0F1FF3F8246C3
:1038B00003D0099B5344099342E7AB895B0601D4CB
:1038C000099801E04FF0FF301DB0BDE8F08F00BF58
:1038D000244700082A4700082E470008A5190008B9
:1038E0004936000838B5064C0023054608462360D3
:1038F000FDF7E6FC431C02D1236803B12B6038BD01
:103900008402002082B001B901A93AB143B1137811
:103910000B601278101C18BF012003E0104601E074
:103920006FF0010002B07047884210B501EB02034E
:1039300001D8421E0BE09842FBD28118D21AD34222
:1039400004D013F8014D01F8014DF8E710BD99427C
:1039500004D011F8014B02F8014FF8E710BD024402
:103960000346934202D003F8011BFAE77047704701
:103970007047F8B5074615460E4621B91146BDE811
:10398000F840FFF703BE1AB9FFF7B2FD2846F8BDAD
:1039900000F022F885420ED929463846FFF7F6FD99
:1039A000044650B131462A46FFF7B2FA314638464E
:1039B000FFF79EFD01E03046F8BD2046F8BD49B155
:1039C000FF2A85BF8A2303600A704FF0FF3098BF3B
:1039D000012070470846704751F8040C0028BEBF0C
:1039E000091851F8043CC0180438704781F00041B0
:1039F00002E000BF83F0004330B54FEA41044FEAD4
:103A0000430594EA050F08BF90EA020F1FBF54EA6E
:103A1000000C55EA020C7FEA645C7FEA655C00F00A
:103A2000E2804FEA5454D4EB5555B8BF6D420CDDDB
:103A30002C4480EA020281EA030382EA000083EA5E
:103A4000010180EA020281EA0303362D88BF30BDFE
:103A500011F0004F4FEA01314FF4801C4CEA113154
:103A600002D0404261EB410113F0004F4FEA0333B3
:103A70004CEA133302D0524263EB430394EA050F3E
:103A800000F0A780A4F10104D5F1200E0DDB02FAAD
:103A90000EFC22FA05F2801841F1000103FA0EF241
:103AA000801843FA05F359410EE0A5F120050EF107
:103AB000200E012A03FA0EFC28BF4CF0020C43FA38
:103AC00005F3C01851EBE37101F0004507D54FF045
:103AD000000EDCF1000C7EEB00006EEB0101B1F595
:103AE000801F1BD3B1F5001F0CD349085FEA3000DB
:103AF0004FEA3C0C04F101044FEA445212F5800FE6
:103B000080F09A80BCF1004F08BF5FEA500C50F182
:103B1000000041EB045141EA050130BD5FEA4C0C65
:103B2000404141EB010111F4801FA4F10104E9D1EE
:103B300091F0000F04BF01460020B1FA81F308BFE5
:103B40002033A3F10B03B3F120020CDA0C3208DDB1
:103B500002F1140CC2F10C0201FA0CF021FA02F18C
:103B60000CE002F11402D8BFC2F1200C01FA02F1FC
:103B700020FA0CFCDCBF41EA0C019040E41AA2BF21
:103B800001EB0451294330BD6FEA04041F3C1CDAE9
:103B90000C340EDC04F11404C4F1200220FA04F009
:103BA00001FA02F340EA030021FA04F345EA0301B3
:103BB00030BDC4F10C04C4F1200220FA02F001FA75
:103BC00004F340EA0300294630BD21FA04F02946F7
:103BD00030BD94F0000F83F4801306BF81F4801190
:103BE0000134013D4EE77FEA645C18BF7FEA655C03
:103BF00029D094EA050F08BF90EA020F05D054EAD5
:103C0000000C04BF1946104630BD91EA030F1EBFD9
:103C10000021002030BD5FEA545C05D140004941DD
:103C200028BF41F0004130BD14F580043CBF01F5D0
:103C3000801130BD01F0004545F0FE4141F47001B6
:103C40004FF0000030BD7FEA645C1ABF1946104691
:103C50007FEA655C1CBF0B46024650EA013406BF92
:103C600052EA033591EA030F41F4002130BD00BF51
:103C700090F0000F04BF0021704730B54FF480640E
:103C800004F132044FF000054FF0000150E700BF8F
:103C900090F0000F04BF0021704730B54FF48064EE
:103CA00004F1320410F0004548BF40424FF00001DB
:103CB0003EE700BF42004FEAE2014FEA31014FEA1E
:103CC00002701FBF12F07F4393F07F4F81F060516D
:103CD000704792F0000F14BF93F07F4F704730B5DC
:103CE0004FF4607401F0004521F0004120E700BF6F
:103CF00050EA010208BF704730B54FF000050AE0F6
:103D000050EA010208BF704730B511F0004502D5F6
:103D1000404261EB41014FF4806404F132045FEAF8
:103D2000915C3FF4DCAE4FF003025FEADC0C18BF9D
:103D300003325FEADC0C18BF033202EBDC02C2F193
:103D4000200300FA03FC20FA02F001FA03FE40EA25
:103D50000E0021FA02F11444C1E600BF70B54FF025
:103D6000FF0C4CF4E06C1CEA11541DBF1CEA135507
:103D700094EA0C0F95EA0C0F00F0DEF82C4481EA6F
:103D8000030621EA4C5123EA4C5350EA013518BF8F
:103D900052EA033541F4801143F4801338D0A0FB7C
:103DA00002CE4FF00005E1FB02E506F00042E0FB29
:103DB00003E54FF00006E1FB03569CF0000F18BF2F
:103DC0004EF0010EA4F1FF04B6F5007F64F54074D7
:103DD00004D25FEA4E0E6D4146EB060642EAC6216A
:103DE00041EA55514FEAC52040EA5E504FEACE2ED7
:103DF000B4F1FD0C88BFBCF5E06F1ED8BEF1004FDA
:103E000008BF5FEA500E50F1000041EB045170BD55
:103E100006F0004646EA010140EA020081EA030199
:103E2000B4EB5C04C2BFD4EB0C0541EA045170BD95
:103E300041F480114FF0000E013C00F3AB8014F10F
:103E4000360FDEBF002001F0004170BDC4F1000458
:103E5000203C35DA0C341BDC04F11404C4F12005D9
:103E600000FA05F320FA04F001FA05F240EA020034
:103E700001F0004221F0004110EBD37021FA04F66A
:103E800042EB06015EEA430E08BF20EAD37070BD24
:103E9000C4F10C04C4F1200500FA04F320FA05F083
:103EA00001FA04F240EA020001F0004110EBD37085
:103EB00041F100015EEA430E08BF20EAD37070BDF5
:103EC000C4F1200500FA05F24EEA020E20FA04F3CE
:103ED00001FA05F243EA020321FA04F001F000417D
:103EE00021FA04F220EA020000EBD3705EEA430EEE
:103EF00008BF20EAD37070BD94F0000F0FD101F01D
:103F00000046400041EB010111F4801F08BF013C55
:103F1000F7D041EA060195F0000F18BF704703F093
:103F20000046520043EB030313F4801F08BF013D1A
:103F3000F7D043EA0603704794EA0C0F0CEA1355D6
:103F400018BF95EA0C0F0CD050EA410618BF52EA90
:103F50004306D1D181EA030101F000414FF0000096
:103F600070BD50EA410606BF1046194652EA4306A4
:103F700019D094EA0C0F02D150EA013613D195EA18
:103F80000C0F05D152EA03361CBF104619460AD160
:103F900081EA030101F0004141F0FE4141F470016A
:103FA0004FF0000070BD41F0FE4141F4780170BD5A
:103FB00070B54FF0FF0C4CF4E06C1CEA11541DBFBF
:103FC0001CEA135594EA0C0F95EA0C0F00F0A7F8C1
:103FD000A4EB050481EA030E52EA03354FEA0131EE
:103FE00000F088804FEA03334FF0805545EA131301
:103FF00043EA12634FEA022245EA111545EA1065C9
:104000004FEA00260EF000419D4208BF964244F15F
:10401000FD0404F5407402D25B084FEA3202B61A7E
:1040200065EB03055B084FEA32024FF480104FF452
:10403000002CB6EB020E75EB030E22BFB61A7546C6
:1040400040EA0C005B084FEA3202B6EB020E75EB59
:10405000030E22BFB61A754640EA5C005B084FEAC1
:104060003202B6EB020E75EB030E22BFB61A75468E
:1040700040EA9C005B084FEA3202B6EB020E75EB99
:10408000030E22BFB61A754640EADC0055EA060E5A
:1040900018D04FEA051545EA16754FEA06164FEA9D
:1040A000C30343EA52734FEAC2025FEA1C1CC0D149
:1040B00011F4801F0BD141EA00014FF000004FF0D6
:1040C000004CB6E711F4801F04BF01430020B4F197
:1040D000FD0C88BFBCF5E06F3FF6AFAEB5EB030C4F
:1040E00004BFB6EB020C5FEA500C50F1000041EB4C
:1040F000045170BD0EF0004E4EEA113114EB5C0419
:10410000C2BFD4EB0C0541EA045170BD41F48011EB
:104110004FF0000E013C90E645EA060E8DE60CEAF3
:10412000135594EA0C0F08BF95EA0C0F3FF43BAF10
:1041300094EA0C0F0AD150EA01347FF434AF95EAC7
:104140000C0F7FF425AF104619462CE795EA0C0FAB
:1041500006D152EA03353FF4FDAE1046194622E778
:1041600050EA410618BF52EA43067FF4C5AE50EA52
:1041700041047FF40DAF52EA43057FF4EBAE12E742
:104180004FF0FF3C06E000BF4FF0010C02E000BF23
:104190004FF0010C4DF804CD4FEA410C7FEA6C5C06
:1041A0004FEA430C18BF7FEA6C5C1BD001B050EAA9
:1041B000410C0CBF52EA430C91EA030F02BF90EA94
:1041C000020F0020704710F1000F91EA030F58BF53
:1041D000994208BF90422CBFD8176FEAE37040F0B5
:1041E000010070474FEA410C7FEA6C5C02D150EA53
:1041F000013C07D14FEA430C7FEA6C5CD6D152EA0E
:10420000033CD3D05DF8040B704700BF84461046D2
:1042100062468C461946634600E000BF01B5FFF7D1
:10422000B7FF002848BF10F1000F01BD4DF808EDA1
:10423000FFF7F4FF0CBF012000205DF808FB00BF72
:104240004DF808EDFFF7EAFF34BF012000205DF8CC
:1042500008FB00BF4DF808EDFFF7E0FF94BF012019
:1042600000205DF808FB00BF4DF808EDFFF7CEFF1A
:1042700094BF012000205DF808FB00BF4DF808ED59
:10428000FFF7C4FF34BF012000205DF808FB00BF2A
:104290004FEA410C7FEA6C5C02D150EA013C0AD142
:1042A0004FEA430C7FEA6C5C02D152EA033C02D134
:1042B0004FF0000070474FF0010070474FEA410295
:1042C00012F5001215D211D56FF47873B3EB625268
:1042D00012D94FEAC12343F0004343EA505311F08F
:1042E000004F23FA02F018BF404270474FF0000021
:1042F000704750EA013005D111F0004008BF6FF05F
:10430000004070474FF00000704700BF2E2E2F7303
:10431000797374656D2F7372632F73746D333266A6
:10432000342D68616C2F73746D3332663478785F26
:1043300068616C5F636F727465782E6300000000C3
:104340002E2E2F73797374656D2F7372632F7374B0
:104350006D333266342D68616C2F73746D33326641
:104360003478785F68616C5F6770696F2E630000F6
:10437000000000000102030401020304060708090B
:104380002E2E2F73797374656D2F7372632F737470
:104390006D333266342D68616C2F73746D33326601
:1043A0003478785F68616C5F7263632E630000002D
:1043B0002E2E2F73797374656D2F7372632F737440
:1043C0006D333266342D68616C2F73746D333266D1
:1043D0003478785F68616C5F74696D2E63000000EB
:1043E00061626F727428292C2065786974696E6720
:1043F0002E2E2E002C2066756E6374696F6E3A2027
:1044000000000000617373657274696F6E2022256D
:104410007322206661696C65643A2066696C652068
:10442000222573222C206C696E6520256425732556
:10443000730A00006173736572745F706172616DFD
:104440002829206661696C65643A2066696C65207C
:10445000222573222C206C696E652025640A0000D9
:104460006D61696E28617267633D25642C206172FD
:1044700067763D5B000000002C200000222573229F
:10448000000000005D293B0A0000000053746163D6
:104490006B206672616D653A0A0000002052302080
:1044A0003D2020253038580A0000000020523120DD
:1044B0003D2020253038580A0000000020523220CC
:1044C0003D2020253038580A0000000020523320BB
:1044D0003D2020253038580A00000000205231329B
:1044E000203D20253038580A00000000204C522082
:1044F0003D2020253038580A00000000205043207D
:104500003D2020253038580A00000000205053522A
:10451000203D20253038580A000000004653522F15
:104520004641523A0A0000002043465352203D20A3
:1045300020253038580A00002048465352203D209C
:1045400020253038580A00002044465352203D2090
:1045500020253038580A00002041465352203D2083
:1045600020253038580A0000204D4D464152203D4C
:1045700020253038580A00002042464152203D2074
:1045800020253038580A00004D6973630A00000086
:10459000204C522F4558435F52455455524E3D20B2
:1045A000253038580A0000005B4861726446617526
:1045B0006C745D0A000000005B4275734661756CA7
:1045C000745D0A005B55736167654661756C745D67
:1045D0000A000000000000000000000001020304C7
:1045E00006070809494E4600696E66004E414E00B6
:1045F0006E616E0030003031323334353637383941
:104600004142434445460030313233343536373841
:104610003961626364656600496E66696E697479C2
:10462000004E614E00000000000000000000F03F5E
:10463000000000000000244000000000000059407D
:104640000000000000408F40000000000088C340D0
:1046500000000000006AF8400000000080842E4145
:1046600000000000D01263410000000084D7974191
:104670000000000065CDCD41000000205FA0024297
:10468000000000E876483742000000A2941A6D420C
:10469000000040E59C30A2420000901EC4BCD642FF
:1046A00000003426F56B0C430080E03779C34143AA
:1046B00000A0D8855734764300C84E676DC1AB4320
:1046C000003D9160E458E143408CB5781DAF15443E
:1046D00050EFE2D6E41A4B4492D54D06CFF0804419
:1046E000F64AE1C7022DB544B49DD9794378EA442E
:1046F0000080E03779C34143176E05B5B5B89346DE
:10470000F5F93FE9034F384D321D30F94877825AA9
:104710003CBF737FDD4F15750500000019000000D8
:104720007D000000232D302B2000686C4C00656656
:1047300067454647004300504F534958002E00003C
:104740002020202020202020202828282828202041
:104750002020202020202020202020202020202059
:1047600088101010101010101010101010101010D1
:1047700004040404040404040404101010101010B1
:10478000104141414141410101010101010101018A
:1047900001010101010101010101011010101010BE
:1047A000104242424242420202020202020202025B
:1047B0000202020202020202020202101010102083
:1047C00000000000000000000000000000000000E9
:1047D00000000000000000000000000000000000D9
:1047E00000000000000000000000000000000000C9
:1047F00000000000000000000000000000000000B9
:1048000000000000000000000000000000000000A8
:104810000000000000000000000000000000000098
:104820000000000000000000000000000000000088
:104830000000000000000000000000000000000078
:1048400078563412EC010020000000000024F4002F
:104850000000000000000000000000000000000058
:104860000000000000000000000000000000000048
:104870000000000000000000000000000000000038
:104880000000000000000000000000000000000028
:104890000000000000000000000000000000000018
:1048A0000000000000000000000000000000000008
:1048B0001000002043000000000000000000000085
:1048C00000000000000000000000000000000000E8
:1048D0000000000043000000000000000000000095
:1048E00000000000000000000000000000000000C8
:1048F0000000000043000000000000000000000075
:1049000000000000000000000000000000000000A7
:104910000000000043000000000000000000000054
:104920000000000000000000000000000000000087
:104930000000000043000000000000000000000034
:104940000000000000000000000000000000000067
:104950000000000043000000000000000000000014
:104960000000000000000000000000000000000047
:1049700000000000430000000000000000000000F4
:104980000000000000000000000000000000000027
:1049900000000000BF3900080539000800000000D1
:1049A0003F4700083D4700082947000829470008FD
:1049B0002947000829470008294700082947000817
:1049C000294700082947000829470008FFFFFFFF83
:1049D000FFFFFFFFFFFFFFFFFFFF0000010041534C
:1049E00043494900000000000000000000000000F2
:1049F0000000000000000000000000000000415323
:104A000043494900000000000000000000000000D1
:104A10000000000000000000000000000000000096
:044A200032547698FE
:040000050800018965
:00000001FF
